S01A0000426C696E6B5769746854434E54306D616E792E7372656360
S11300000C943B000C9458000C9458000C94580029
S11300100C9458000C9458000C9458000C945800FC
S11300200C9458000C9458000C9458000C945800EC
S11300300C9458000C9458000C945A000C945800DA
S11300400C9458000C9458000C9458000C945800CC
S11300500C9458000C9458000C9458000C945800BC
S11300600C9458000C945800B900C000C700CE008E
S1130070D500DC00E30011241FBECFEFD8E0DEBFC3
S1130080CDBF11E0A0E0B1E0E2EEF1E002C00590E6
S11300900D92A230B107D9F721E0A2E0B1E001C08E
S11300A01D92A430B207E1F70E9481000C94EF0086
S11300B00C9400001F920F920FB60F9211248F938D
S11300C081E0809302018F910F900FBE0F901F90DB
S11300D018955298539A5B985C9A08955B9A5C9829
S11300E008955498529A5A985B9A08955A9A5B982C
S11300F008955398549A5A985C9A08955A9A5C9819
S1130100089582E084BD95E095BD9BE997BD8093F9
S11301106E0078940F2EF6E0DF2EF02D0F2EF5E012
S1130120EF2EF02D6894FF24F2F803E012E0D1E002
S1130130C2E390910001209103018091020181307A
S1130140E1F710920201911108C02F5F273039F4B2
S1130150C09300011092030110C0915001C092E3BA
S1130160E22FF0E0E730F10540F7EC5CFF4F0C9430
S1130170E90090930001109203010E946900D9CF15
S113018090930001D09303010E946E00D2CF90930C
S11301900001109303010E947100CBCF90930001E2
S11301A0009303010E947600C4CF90930001F09263
S11301B003010E947900BDCF90930001E0920301F6
S11301C00E947E00B6CF90930001D09203011BB829
S11301D0B0CFEE0FFF1F0590F491E02D0994F89431
S10501E0FFCF4B
S10501E23200E5
S9030000FC
