S00F000070696E6D6F64652E7372656329
S11300000C9452000C945C000C945C000C945C0006
S11300100C945C000C945C000C945C000C945C00EC
S11300200C945C000C945C000C945C000C945C00DC
S11300300C945C000C945C000C945C000C945C00CC
S11300400C945C000C945C000C945C000C945C00BC
S11300500C945C000C945C000C945C000C945C00AC
S11300600C945C000C945C00000000002500280047
S11300702B0000000000240027002A0004040404CC
S1130080040404040202020202020303030303033E
S1130090010204081020408001020408102001021B
S11300A00408102011241FBECFEFD8E0DEBFCDBF5F
S11300B00E949D000C94A2000C940000CF93DF9347
S11300C090E0FC01E057FF4F2491FC01E458FF4FFE
S11300D08491882379F190E0880F991FFC01EE58F0
S11300E0FF4FA591B491FC01E859FF4FC591D491FC
S11300F061110CC09FB7F8948C91E22FE0958E2388
S11301008C932881E223E8839FBF14C0623061F49A
S11301109FB7F8948C91322F309583238C93E88188
S1130120E22BE8839FBF06C08FB7F894EC91E22BD3
S1130130EC938FBFDF91CF91089561E08DE00E9431
S10B01405E00FBCFF894FFCF31
S9030000FC
