S0110000426C696E6B4D616E792E737265638E
S11300000C9434000C943E000C943E000C943E007E
S11300100C943E000C943E000C943E000C943E0064
S11300200C943E000C943E000C943E000C943E0054
S11300300C943E000C943E000C943E000C943E0044
S11300400C943E000C943E000C943E000C943E0034
S11300500C943E000C943E000C943E000C943E0024
S11300600C943E000C943E0011241FBECFEFD8E048
S1130070DEBFCDBF0E9458000C94AB000C9400006E
S11300805298539A5B985C9A08955B9A5C98089589
S11300905498529A5A985B9A08955A9A5B9808957C
S11300A05398549A5A985C9A08955A9A5C98089569
S11300B08AB18C618AB98BB1837E8BB90E9440006E
S11300C02FEF89E698E1215080409040E1F700C08D
S11300D000000E9445002FEF89E698E121508040FE
S11300E09040E1F700C000000E9448002FEF89E62D
S11300F098E1215080409040E1F700C000000E9448
S11301004D002FEF89E698E1215080409040E1F7BF
S113011000C000000E9450002FEF89E698E12150B2
S113012080409040E1F700C000000E9455002FEF8E
S113013089E698E1215080409040E1F700C000003A
S11301401BB82FEF89E698E1215080409040E1F7F9
S10D015000C00000B3CFF894FFCF05
S9030000FC
