S00D0000426C696E6B2E7372656327
S11300000C9434000C943E000C943E000C943E007E
S11300100C943E000C943E000C943E000C943E0064
S11300200C943E000C943E000C943E000C943E0054
S11300300C943E000C943E000C943E000C943E0044
S11300400C943E000C943E000C943E000C943E0034
S11300500C943E000C943E000C943E000C943E0024
S11300600C943E000C943E0011241FBECFEFD8E048
S1130070DEBFCDBF0E9440000C9457000C940000DA
S113008080E284B985B92FEF34E39CE021503040FD
S11300909040E1F700C0000015B82FEF34E39CE076
S11300A0215030409040E1F700C00000EBCFF894BD
S10500B0FFCF7C
S9030000FC
